S01600004D6F6462757350726F746F636F6C2E7372656352
S11300000C94FA000C9412010C9412010C94120139
S11300100C9412010C9412010C9412010C94120110
S11300200C9412010C9412010C9412010C94120100
S11300300C9412010C9412010C9412010C941201F0
S11300400C9412010C9412010C9412010C941201E0
S11300500C9412010C9412010C9412010C941201D0
S11300600C9412010C9412010C9412010C941201C0
S11300700C9412010C9412010C9412010C941201B0
S11300800C9412010C9412010C9412010C941201A0
S11300900C9412010C9412010C9412010C94120190
S11300A00C9412010C9412010C9412010C94120180
S11300B00C9412010C9412010C9412010C94120170
S11300C00C9412010C9412010C9412010C94120160
S11300D00C9412010C9412010C9412010C94120150
S11300E00C9412010C9412010C9412010C94120140
S11300F00C9412010C9412010C9412010C94120130
S11301000C9412010C9412010C9412010C9412011F
S11301100C9412010C9412010C9412010C9412010F
S11301200C9412010C9412010C9412010C941201FF
S11301300C9412010C9412010C9412010C941201EF
S11301400C9412010C9412010C9412010C941201DF
S11301500C9412010C9412010C9412010C941201CF
S11301600C9412010C9412010C9412010C941201BF
S11301700C9412010C9412010C9412010C941201AF
S11301800C9412010C9412010C9412010C9412019F
S11301900C9412010C9412010C9412010C9412018F
S11301A00C9412010C9412010C9412010C9412017F
S11301B00C9412010C9412010C9412010C9412016F
S11301C00C9412010C9412010C9412010C9412015F
S11301D00C9412010C9412010C9412010C9412014F
S11301E00C9412010C9412010C9412010C9412013F
S11301F00C94120111241FBECFEFCDBFDFE3DEBF8D
S113020000E00CBF18BE19BE1ABE1BBE20E2A0E05F
S1130210B0E201C01D92A831B207E1F70E94990132
S11302200C94A0010C940000E0EAF6E088E08583D9
S1130230818384E08283E0EAFBE0138288E1809397
S1130240A40B83E08093A50B17828DE08683089529
S1130250E0E5F0E0108284E080838091510082FF29
S1130260FCCF81E08093400098ED94BF9CE1909393
S1130270410010925600809360008091510081FFEC
S1130280FCCF88ED84BF81E08093400008958A33D9
S113029059F4109200201092032024E030E22093BD
S11302A00120309302200EC08A3061F491E09093D3
S11302B00320E0910020F0E0EC5FFF4D808310927A
S11302C00020089590910020E92FF0E0EC5FFF4DAD
S11302D080839F5F90930020089580910320813054
S11302E0B9F4E0910120F091022080818A3061F01C
S11302F08093A00B8091012090910220019680931D
S113030001209093022008958093A00B1092032063
S113031008958091A10B8823E4F78091A00B90E0CD
S11303200E9447018091A10B85FFFCCF0E946D01C3
S113033008950E9428010E9414010E948901FDCFA2
S1070340F894FFCF5B
S9030000FC
