S01600004D6F6462757350726F746F636F6C2E7372656352
S11300000C94FA000C9412010C9412010C94120139
S11300100C9412010C9412010C9412010C94120110
S11300200C9412010C9412010C9412010C94120100
S11300300C9412010C9412010C9412010C941201F0
S11300400C9412010C9412010C9412010C941201E0
S11300500C9412010C9412010C9412010C941201D0
S11300600C9412010C9412010C9412010C941201C0
S11300700C9412010C9412010C9412010C941201B0
S11300800C9412010C9412010C9412010C941201A0
S11300900C9412010C9412010C9412010C94120190
S11300A00C9412010C9412010C9412010C94120180
S11300B00C9412010C9412010C9412010C94120170
S11300C00C9412010C9412010C9412010C94120160
S11300D00C9412010C9412010C9412010C94120150
S11300E00C9412010C9412010C9412010C94120140
S11300F00C9412010C9412010C9412010C94120130
S11301000C9412010C9412010C9412010C9412011F
S11301100C9412010C9412010C9412010C9412010F
S11301200C9412010C9412010C9412010C941201FF
S11301300C9412010C9412010C9412010C941201EF
S11301400C9412010C9412010C9412010C941201DF
S11301500C9412010C9412010C9412010C941201CF
S11301600C9412010C9412010C9412010C941201BF
S11301700C9412010C9412010C9412010C941201AF
S11301800C9412010C9412010C9412010C9412019F
S11301900C9412010C9412010C9412010C9412018F
S11301A00C9412010C9412010C9412010C9412017F
S11301B00C9412010C9412010C9412010C9412016F
S11301C00C9412010C9412010C9412010C9412015F
S11301D00C9412010C9412010C9412010C9414014D
S11301E00C9412010C946A010C9412010C941201E7
S11301F00C94120111241FBECFEFCDBFDFE3DEBF8D
S113020000E00CBF18BE19BE1ABE1BBE20E2A0E05F
S1130210B0E201C01D92AB31B207E1F70E948D0339
S11302200C94B5030C9400001F920F920FB60F921A
S1130230112408B60F9218BE0AB60F921ABE0BB656
S11302400F921BBE2F933F938F939F93EF93FF9334
S1130250CF93DF931F92CDB7DEB78FB78983F8941E
S11302609091A00B9A3359F410921A201092052001
S113027026E030E220930220309303200BC09A3012
S113028049F481E080930520E0911A20F0E0EA5FD0
S1130290FF4D908380911A20E82FF0E0EA5FFF4D34
S11302A090838F5F80931A2089818FBF0F90DF9195
S11302B0CF91FF91EF919F918F913F912F910F904B
S11302C00BBE0F900ABE0F9008BE0F900FBE0F908A
S11302D01F9018951F920F920FB60F92112408B613
S11302E00F9218BE0AB60F921ABE0BB60F921BBE1F
S11302F02F934F935F938F939F93EF93FF93CF939A
S1130300DF931F92CDB7DEB78FB78983F8948091BE
S113031001208823D1F020910020422F50E08091C9
S1130320042090E001974817590711F41092012016
S1130330E0910220F091032081E0820F809300205D
S1130340E20FF11D80818093A00B89818FBF0F90F4
S1130350DF91CF91FF91EF919F918F915F914F9199
S11303602F910F900BBE0F900ABE0F9008BE0F90F6
S11303700FBE0F901F901895E0E5F0E0108284E026
S113038080838091510082FFFCCF81E08093400004
S113039098ED94BF9CE19093410010925600809395
S11303A060008091510081FFFCCF88ED84BF81E023
S11303B0809340000895789487E08093A200089584
S11303C0E0EAF6E088E08583818384E08283E0EAE2
S11303D0FBE08CE3838388E18093A40B83E0809328
S11303E0A50B17828DE086830895AC0190E016C0BA
S11303F0FA01E90FF11D20812A3379F02D3069F0DB
S11304002A3059F02A3010F4205D2083208186EFB1
S1130410820F863010F4295C20839F5F961740F387
S113042008959FEB980F963018F499EC980F0CC030
S11304309FE9980F963018F499EA980F05C090ED4B
S1130440980F9A3008F0982F8FEB860F863018F4A7
S113045029EC260F0CC08FE9860F863018F429EAA0
S1130460260F05C020ED260F2A3008F0262F30E194
S1130470939FC0011124822B08951F93CF93DF9380
S1130480D42F122F0E941102C82F612F8D2F0E948A
S113049011022C2F30E0322F2227A901482BCA0148
S11304A0DF91CF911F9108950F931F93CF93DF9303
S11304B0EC018B016A8189810E941102F801808319
S11304C06C818B810E941102F801818328854F8100
S11304D06E818D810E943D02F801828393832C8575
S11304E04B856A8589850E943D02F8018483958342
S11304F06E858D850E941102F8018683DF91CF916C
S11305001F910F910895AC0180E001C08F5FFA0143
S1130510E80FF11D20812A30C9F78F5F08959C01EF
S113052090E00AC0F901E60FF11D319780818A330A
S113053029F0980F905361506111F4CF892F819560
S113054008950F931F93CF93DF938C01EB01CB019D
S11305500E9483026CEF680FCE010E948F02F801A3
S11305609681891302C081E001C080E0DF91CF91C0
S11305701F910F910895DB01FC016481758180E076
S113058008C0E82FF0E03596EA0FFB1F9FEF908339
S11305908F5FE82FF0E0E617F70798F31C92842F9B
S11305A082958F7011968C9311974F7012964C937D
S11305B0129713961C92139783E014968C936B5F97
S11305C0F901608380E00895FC013181333031F416
S11305D0E22F9A014E2F0E94BB02089581E00895F4
S11305E0CF92DF92EF92FF920F931F93CF93DF93FB
S11305F07C01EB018A0166E070E20E94A10288237B
S113060009F46FC0D7018C91823008F073C021E0E7
S113061044E050E2BE01C7010E94E402882349F18C
S113062094E69093A00B1882198291E09A831B821E
S11306309C831D82811101C090E09E8367E0CE01FE
S11306400E948F021F8291E0811101C090E098877F
S11306508DE089878AE08A878AE388838BE08093A8
S1130660042088818093A00BCC24CA94DC2C7601CE
S113067049C0F8016081CE010E948F029AE39883F9
S1130680D8019C91FE01E90FF11D982F92959F705E
S11306909083EC91F0E03196EC0FFD1F8F70808316
S11306A0EC91F0E03296EC0FFD1F8DE08083EC912D
S11306B0F0E03396EC0FFD1F8AE080836C916C5F51
S11306C06C93C62ED12CE12CF12CCE010E94F501A5
S11306D081E0809301208093002088818093A00B87
S11306E011C00F2EFEEFCF2EDD24DA94ED2CFD2C5D
S11306F0F02D08C00F2EFDEFCF2EDD24DA94ED2C63
S1130700FD2CF02DC701B601DF91CF911F910F9100
S1130710FF90EF90DF90CF900895CF93DF93CDB704
S1130720DEB72797CDBFDEBF0E94BC010E94E00167
S11307300E94DB01809105208823E1F310920520BB
S1130740BE016F5F7F4F86E090E20E9454028D816C
S11307508093A00B609102207091032044E050E24A
S1110760CE0101960E94F002E5CFF894FFCF7F
S9030000FC
